{
  "_format": "hh-sol-artifact-1",
  "contractName": "PaymentScheduler",
  "sourceName": "contracts/PaymentScheduler.sol",
  "abi": [
    {
      "anonymous": false,
      "inputs": [
        {
          "indexed": false,
          "internalType": "address",
          "name": "previousAdmin",
          "type": "address"
        },
        {
          "indexed": false,
          "internalType": "address",
          "name": "newAdmin",
          "type": "address"
        }
      ],
      "name": "AdminChanged",
      "type": "event"
    },
    {
      "anonymous": false,
      "inputs": [
        {
          "indexed": true,
          "internalType": "address",
          "name": "beacon",
          "type": "address"
        }
      ],
      "name": "BeaconUpgraded",
      "type": "event"
    },
    {
      "anonymous": false,
      "inputs": [
        {
          "indexed": false,
          "internalType": "address",
          "name": "user",
          "type": "address"
        },
        {
          "indexed": false,
          "internalType": "bool",
          "name": "status",
          "type": "bool"
        }
      ],
      "name": "BlacklistUpdated",
      "type": "event"
    },
    {
      "anonymous": false,
      "inputs": [
        {
          "indexed": false,
          "internalType": "bool",
          "name": "status",
          "type": "bool"
        }
      ],
      "name": "ContractEnabled",
      "type": "event"
    },
    {
      "anonymous": false,
      "inputs": [
        {
          "indexed": false,
          "internalType": "address",
          "name": "newFeeToken",
          "type": "address"
        }
      ],
      "name": "FeeTokenUpdated",
      "type": "event"
    },
    {
      "anonymous": false,
      "inputs": [
        {
          "indexed": false,
          "internalType": "uint256",
          "name": "newFee",
          "type": "uint256"
        }
      ],
      "name": "FeeUpdated",
      "type": "event"
    },
    {
      "anonymous": false,
      "inputs": [
        {
          "indexed": false,
          "internalType": "address",
          "name": "sender",
          "type": "address"
        },
        {
          "indexed": false,
          "internalType": "address",
          "name": "recipient",
          "type": "address"
        },
        {
          "indexed": false,
          "internalType": "uint256",
          "name": "amount",
          "type": "uint256"
        }
      ],
      "name": "InstantTransactionExecuted",
      "type": "event"
    },
    {
      "anonymous": false,
      "inputs": [
        {
          "indexed": true,
          "internalType": "address",
          "name": "previousOwner",
          "type": "address"
        },
        {
          "indexed": true,
          "internalType": "address",
          "name": "newOwner",
          "type": "address"
        }
      ],
      "name": "OwnershipTransferred",
      "type": "event"
    },
    {
      "anonymous": false,
      "inputs": [
        {
          "indexed": false,
          "internalType": "address",
          "name": "account",
          "type": "address"
        }
      ],
      "name": "Paused",
      "type": "event"
    },
    {
      "anonymous": false,
      "inputs": [
        {
          "indexed": true,
          "internalType": "uint256",
          "name": "id",
          "type": "uint256"
        }
      ],
      "name": "TransactionCancelled",
      "type": "event"
    },
    {
      "anonymous": false,
      "inputs": [
        {
          "indexed": true,
          "internalType": "uint256",
          "name": "id",
          "type": "uint256"
        },
        {
          "indexed": false,
          "internalType": "address",
          "name": "sender",
          "type": "address"
        },
        {
          "indexed": false,
          "internalType": "address",
          "name": "recipient",
          "type": "address"
        },
        {
          "indexed": false,
          "internalType": "uint256",
          "name": "amount",
          "type": "uint256"
        }
      ],
      "name": "TransactionExecuted",
      "type": "event"
    },
    {
      "anonymous": false,
      "inputs": [
        {
          "indexed": true,
          "internalType": "uint256",
          "name": "id",
          "type": "uint256"
        },
        {
          "indexed": false,
          "internalType": "address",
          "name": "sender",
          "type": "address"
        },
        {
          "indexed": false,
          "internalType": "address",
          "name": "recipient",
          "type": "address"
        },
        {
          "indexed": false,
          "internalType": "uint256",
          "name": "amount",
          "type": "uint256"
        },
        {
          "indexed": false,
          "internalType": "uint256",
          "name": "executionTime",
          "type": "uint256"
        }
      ],
      "name": "TransactionExecutionDetails",
      "type": "event"
    },
    {
      "anonymous": false,
      "inputs": [
        {
          "indexed": true,
          "internalType": "uint256",
          "name": "id",
          "type": "uint256"
        },
        {
          "indexed": false,
          "internalType": "address",
          "name": "sender",
          "type": "address"
        },
        {
          "indexed": false,
          "internalType": "address",
          "name": "recipient",
          "type": "address"
        },
        {
          "indexed": false,
          "internalType": "uint256",
          "name": "amount",
          "type": "uint256"
        },
        {
          "indexed": false,
          "internalType": "uint256",
          "name": "scheduledTime",
          "type": "uint256"
        }
      ],
      "name": "TransactionScheduled",
      "type": "event"
    },
    {
      "anonymous": false,
      "inputs": [
        {
          "indexed": false,
          "internalType": "address",
          "name": "account",
          "type": "address"
        }
      ],
      "name": "Unpaused",
      "type": "event"
    },
    {
      "anonymous": false,
      "inputs": [
        {
          "indexed": true,
          "internalType": "address",
          "name": "implementation",
          "type": "address"
        }
      ],
      "name": "Upgraded",
      "type": "event"
    },
    {
      "inputs": [],
      "name": "baseFee",
      "outputs": [
        {
          "internalType": "uint256",
          "name": "",
          "type": "uint256"
        }
      ],
      "stateMutability": "view",
      "type": "function"
    },
    {
      "inputs": [
        {
          "internalType": "address",
          "name": "",
          "type": "address"
        }
      ],
      "name": "blacklist",
      "outputs": [
        {
          "internalType": "bool",
          "name": "",
          "type": "bool"
        }
      ],
      "stateMutability": "view",
      "type": "function"
    },
    {
      "inputs": [
        {
          "internalType": "uint256",
          "name": "amount",
          "type": "uint256"
        }
      ],
      "name": "calculateDynamicFee",
      "outputs": [
        {
          "internalType": "uint256",
          "name": "",
          "type": "uint256"
        }
      ],
      "stateMutability": "view",
      "type": "function"
    },
    {
      "inputs": [
        {
          "internalType": "uint256",
          "name": "id",
          "type": "uint256"
        }
      ],
      "name": "cancelTransaction",
      "outputs": [],
      "stateMutability": "nonpayable",
      "type": "function"
    },
    {
      "inputs": [
        {
          "internalType": "uint256",
          "name": "id",
          "type": "uint256"
        }
      ],
      "name": "executeTransaction",
      "outputs": [],
      "stateMutability": "nonpayable",
      "type": "function"
    },
    {
      "inputs": [],
      "name": "feeToken",
      "outputs": [
        {
          "internalType": "contract IERC20Upgradeable",
          "name": "",
          "type": "address"
        }
      ],
      "stateMutability": "view",
      "type": "function"
    },
    {
      "inputs": [],
      "name": "getAllScheduledTransactions",
      "outputs": [
        {
          "components": [
            {
              "internalType": "address payable",
              "name": "sender",
              "type": "address"
            },
            {
              "internalType": "address payable",
              "name": "recipient",
              "type": "address"
            },
            {
              "internalType": "uint256",
              "name": "amount",
              "type": "uint256"
            },
            {
              "internalType": "uint256",
              "name": "scheduledTime",
              "type": "uint256"
            },
            {
              "internalType": "bool",
              "name": "executed",
              "type": "bool"
            },
            {
              "internalType": "bool",
              "name": "cancelled",
              "type": "bool"
            }
          ],
          "internalType": "struct PaymentScheduler.Transaction[]",
          "name": "",
          "type": "tuple[]"
        }
      ],
      "stateMutability": "view",
      "type": "function"
    },
    {
      "inputs": [
        {
          "internalType": "uint256",
          "name": "_baseFee",
          "type": "uint256"
        }
      ],
      "name": "initialize",
      "outputs": [],
      "stateMutability": "nonpayable",
      "type": "function"
    },
    {
      "inputs": [
        {
          "internalType": "address payable",
          "name": "recipient",
          "type": "address"
        },
        {
          "internalType": "uint256",
          "name": "amount",
          "type": "uint256"
        }
      ],
      "name": "instantTransaction",
      "outputs": [],
      "stateMutability": "payable",
      "type": "function"
    },
    {
      "inputs": [],
      "name": "isContractEnabled",
      "outputs": [
        {
          "internalType": "bool",
          "name": "",
          "type": "bool"
        }
      ],
      "stateMutability": "view",
      "type": "function"
    },
    {
      "inputs": [],
      "name": "isEnabled",
      "outputs": [
        {
          "internalType": "bool",
          "name": "",
          "type": "bool"
        }
      ],
      "stateMutability": "view",
      "type": "function"
    },
    {
      "inputs": [],
      "name": "owner",
      "outputs": [
        {
          "internalType": "address",
          "name": "",
          "type": "address"
        }
      ],
      "stateMutability": "view",
      "type": "function"
    },
    {
      "inputs": [],
      "name": "pause",
      "outputs": [],
      "stateMutability": "nonpayable",
      "type": "function"
    },
    {
      "inputs": [],
      "name": "paused",
      "outputs": [
        {
          "internalType": "bool",
          "name": "",
          "type": "bool"
        }
      ],
      "stateMutability": "view",
      "type": "function"
    },
    {
      "inputs": [],
      "name": "renounceOwnership",
      "outputs": [],
      "stateMutability": "nonpayable",
      "type": "function"
    },
    {
      "inputs": [
        {
          "internalType": "address payable",
          "name": "recipient",
          "type": "address"
        },
        {
          "internalType": "uint256",
          "name": "amount",
          "type": "uint256"
        },
        {
          "internalType": "uint256",
          "name": "scheduledTime",
          "type": "uint256"
        }
      ],
      "name": "scheduleTransaction",
      "outputs": [
        {
          "internalType": "uint256",
          "name": "",
          "type": "uint256"
        }
      ],
      "stateMutability": "payable",
      "type": "function"
    },
    {
      "inputs": [
        {
          "internalType": "uint256",
          "name": "newBaseFee",
          "type": "uint256"
        }
      ],
      "name": "setBaseFee",
      "outputs": [],
      "stateMutability": "nonpayable",
      "type": "function"
    },
    {
      "inputs": [
        {
          "internalType": "bool",
          "name": "_isEnabled",
          "type": "bool"
        }
      ],
      "name": "setEnabled",
      "outputs": [],
      "stateMutability": "nonpayable",
      "type": "function"
    },
    {
      "inputs": [
        {
          "internalType": "address",
          "name": "newFeeToken",
          "type": "address"
        }
      ],
      "name": "setFeeToken",
      "outputs": [],
      "stateMutability": "nonpayable",
      "type": "function"
    },
    {
      "inputs": [],
      "name": "transactionCount",
      "outputs": [
        {
          "internalType": "uint256",
          "name": "",
          "type": "uint256"
        }
      ],
      "stateMutability": "view",
      "type": "function"
    },
    {
      "inputs": [
        {
          "internalType": "uint256",
          "name": "",
          "type": "uint256"
        }
      ],
      "name": "transactions",
      "outputs": [
        {
          "internalType": "address payable",
          "name": "sender",
          "type": "address"
        },
        {
          "internalType": "address payable",
          "name": "recipient",
          "type": "address"
        },
        {
          "internalType": "uint256",
          "name": "amount",
          "type": "uint256"
        },
        {
          "internalType": "uint256",
          "name": "scheduledTime",
          "type": "uint256"
        },
        {
          "internalType": "bool",
          "name": "executed",
          "type": "bool"
        },
        {
          "internalType": "bool",
          "name": "cancelled",
          "type": "bool"
        }
      ],
      "stateMutability": "view",
      "type": "function"
    },
    {
      "inputs": [
        {
          "internalType": "address",
          "name": "newOwner",
          "type": "address"
        }
      ],
      "name": "transferOwnership",
      "outputs": [],
      "stateMutability": "nonpayable",
      "type": "function"
    },
    {
      "inputs": [],
      "name": "unpause",
      "outputs": [],
      "stateMutability": "nonpayable",
      "type": "function"
    },
    {
      "inputs": [
        {
          "internalType": "address",
          "name": "user",
          "type": "address"
        },
        {
          "internalType": "bool",
          "name": "status",
          "type": "bool"
        }
      ],
      "name": "updateBlacklist",
      "outputs": [],
      "stateMutability": "nonpayable",
      "type": "function"
    },
    {
      "inputs": [
        {
          "internalType": "address",
          "name": "newImplementation",
          "type": "address"
        }
      ],
      "name": "upgradeTo",
      "outputs": [],
      "stateMutability": "nonpayable",
      "type": "function"
    },
    {
      "inputs": [
        {
          "internalType": "address",
          "name": "newImplementation",
          "type": "address"
        },
        {
          "internalType": "bytes",
          "name": "data",
          "type": "bytes"
        }
      ],
      "name": "upgradeToAndCall",
      "outputs": [],
      "stateMutability": "payable",
      "type": "function"
    },
    {
      "stateMutability": "payable",
      "type": "receive"
    }
  ],
  "bytecode": "0x6080604052348015600e575f5ffd5b506147698061001c5f395ff3fe608060405260043610610184575f3560e01c8063715018a6116100d0578063aac2ccad11610089578063ee22610b11610063578063ee22610b146104f6578063f2fde38b1461051e578063f9f92be414610546578063fe4b84df146105825761018b565b8063aac2ccad14610466578063b77bf60014610490578063d62a0f81146104ba5761018b565b8063715018a61461037d5780638456cb59146103935780638da5cb5b146103a95780639155e083146103d35780639ace38c2146103fb5780639d602d2d1461043c5761018b565b80633f4ba83a1161013d5780635c975abb116101175780635c975abb146102d5578063647846a5146102ff5780636aa633b6146103295780636ef25c3a146103535761018b565b80633f4ba83a1461027b57806346860698146102915780634f1ef286146102b95761018b565b806302e8d8c01461018f57806303239d8e146101bf57806315cce224146101db578063328d8f72146102035780633380c0d81461022b5780633659cfe6146102535761018b565b3661018b57005b5f5ffd5b6101a960048036038101906101a491906132c6565b6105aa565b6040516101b69190613325565b60405180910390f35b6101d960048036038101906101d4919061333e565b610998565b005b3480156101e6575f5ffd5b5061020160048036038101906101fc91906133b7565b610c93565b005b34801561020e575f5ffd5b5061022960048036038101906102249190613417565b610d8a565b005b348015610236575f5ffd5b50610251600480360381019061024c9190613442565b610e5a565b005b34801561025e575f5ffd5b50610279600480360381019061027491906133b7565b611162565b005b348015610286575f5ffd5b5061028f611187565b005b34801561029c575f5ffd5b506102b760048036038101906102b29190613442565b61120d565b005b6102d360048036038101906102ce91906135a9565b6112cb565b005b3480156102e0575f5ffd5b506102e96112e4565b6040516102f69190613612565b60405180910390f35b34801561030a575f5ffd5b506103136112f9565b6040516103209190613686565b60405180910390f35b348015610334575f5ffd5b5061033d61131f565b60405161034a9190613612565b60405180910390f35b34801561035e575f5ffd5b50610367611332565b6040516103749190613325565b60405180910390f35b348015610388575f5ffd5b50610391611339565b005b34801561039e575f5ffd5b506103a7611472565b005b3480156103b4575f5ffd5b506103bd6114f8565b6040516103ca91906136ae565b60405180910390f35b3480156103de575f5ffd5b506103f960048036038101906103f491906136c7565b611520565b005b348015610406575f5ffd5b50610421600480360381019061041c9190613442565b61162e565b60405161043396959493929190613714565b60405180910390f35b348015610447575f5ffd5b506104506116be565b60405161045d9190613612565b60405180910390f35b348015610471575f5ffd5b5061047a6116d4565b60405161048791906138c1565b60405180910390f35b34801561049b575f5ffd5b506104a46118fe565b6040516104b19190613325565b60405180910390f35b3480156104c5575f5ffd5b506104e060048036038101906104db9190613442565b611905565b6040516104ed9190613325565b60405180910390f35b348015610501575f5ffd5b5061051c60048036038101906105179190613442565b611940565b005b348015610529575f5ffd5b50610544600480360381019061053f91906133b7565b611d3d565b005b348015610551575f5ffd5b5061056c600480360381019061056791906133b7565b611ee5565b6040516105799190613612565b60405180910390f35b34801561058d575f5ffd5b506105a860048036038101906105a39190613442565b611f03565b005b5f6105b36112e4565b156105f3576040517f08c379a00000000000000000000000000000000000000000000000000000000081526004016105ea9061393b565b60405180910390fd5b600260c95403610638576040517f08c379a000000000000000000000000000000000000000000000000000000000815260040161062f906139a3565b60405180910390fd5b600260c9819055506101315f3373ffffffffffffffffffffffffffffffffffffffff1673ffffffffffffffffffffffffffffffffffffffff1681526020019081526020015f205f9054906101000a900460ff16156106cb576040517f08c379a00000000000000000000000000000000000000000000000000000000081526004016106c290613a0b565b60405180910390fd5b5f831161070d576040517f08c379a000000000000000000000000000000000000000000000000000000000815260040161070490613a73565b60405180910390fd5b4282116107194261201b565b6107228461201b565b604051602001610733929190613bb7565b60405160208183030381529060405290610783576040517f08c379a000000000000000000000000000000000000000000000000000000000815260040161077a9190613c28565b60405180910390fd5b505f61078e84611905565b9050808461079c9190613c75565b34146107dd576040517f08c379a00000000000000000000000000000000000000000000000000000000081526004016107d490613d18565b60405180910390fd5b5f61012e5f8154809291906107f190613d36565b9190505590506040518060c001604052803373ffffffffffffffffffffffffffffffffffffffff1681526020018773ffffffffffffffffffffffffffffffffffffffff1681526020018681526020018581526020015f151581526020015f151581525061012d5f8381526020019081526020015f205f820151815f015f6101000a81548173ffffffffffffffffffffffffffffffffffffffff021916908373ffffffffffffffffffffffffffffffffffffffff1602179055506020820151816001015f6101000a81548173ffffffffffffffffffffffffffffffffffffffff021916908373ffffffffffffffffffffffffffffffffffffffff16021790555060408201518160020155606082015181600301556080820151816004015f6101000a81548160ff02191690831515021790555060a08201518160040160016101000a81548160ff021916908315150217905550905050807f03007cea4db2c6c497b4dcc58da86df4157c12f03ab8286192b235041fdc5b523388888860405161097c9493929190613d9d565b60405180910390a28092505050600160c9819055509392505050565b6109a06112e4565b156109e0576040517f08c379a00000000000000000000000000000000000000000000000000000000081526004016109d79061393b565b60405180910390fd5b6101325f9054906101000a900460ff16610a2f576040517f08c379a0000000000000000000000000000000000000000000000000000000008152600401610a2690613e2a565b60405180910390fd5b600260c95403610a74576040517f08c379a0000000000000000000000000000000000000000000000000000000008152600401610a6b906139a3565b60405180910390fd5b600260c9819055506101315f3373ffffffffffffffffffffffffffffffffffffffff1673ffffffffffffffffffffffffffffffffffffffff1681526020019081526020015f205f9054906101000a900460ff1615610b07576040517f08c379a0000000000000000000000000000000000000000000000000000000008152600401610afe90613a0b565b60405180910390fd5b5f8111610b49576040517f08c379a0000000000000000000000000000000000000000000000000000000008152600401610b4090613a73565b60405180910390fd5b5f610b5382611905565b90508082610b619190613c75565b3414610ba2576040517f08c379a0000000000000000000000000000000000000000000000000000000008152600401610b9990613d18565b60405180910390fd5b5f8373ffffffffffffffffffffffffffffffffffffffff1683604051610bc790613e75565b5f6040518083038185875af1925050503d805f8114610c01576040519150601f19603f3d011682016040523d82523d5f602084013e610c06565b606091505b5050905080610c4a576040517f08c379a0000000000000000000000000000000000000000000000000000000008152600401610c4190613ed3565b60405180910390fd5b7f198539828ea1b1430042d87021d717b33000f4eeefcba705c4849838f0ec31cf338585604051610c7d93929190613ef1565b60405180910390a15050600160c9819055505050565b610c9b6120e5565b73ffffffffffffffffffffffffffffffffffffffff16610cb96114f8565b73ffffffffffffffffffffffffffffffffffffffff1614610d0f576040517f08c379a0000000000000000000000000000000000000000000000000000000008152600401610d0690613f70565b60405180910390fd5b806101305f6101000a81548173ffffffffffffffffffffffffffffffffffffffff021916908373ffffffffffffffffffffffffffffffffffffffff1602179055507fa0ca04e9956a42929fa24e6299bb6622c8703ac575c61b33e01fb170100ee6dc81604051610d7f91906136ae565b60405180910390a150565b610d926120e5565b73ffffffffffffffffffffffffffffffffffffffff16610db06114f8565b73ffffffffffffffffffffffffffffffffffffffff1614610e06576040517f08c379a0000000000000000000000000000000000000000000000000000000008152600401610dfd90613f70565b60405180910390fd5b806101325f6101000a81548160ff0219169083151502179055507fb332ca16caa1c4a06e0ac387e6f16243ed23af2575eb84c3417d16dbbfa3f34381604051610e4f9190613612565b60405180910390a150565b610e626112e4565b15610ea2576040517f08c379a0000000000000000000000000000000000000000000000000000000008152600401610e999061393b565b60405180910390fd5b600260c95403610ee7576040517f08c379a0000000000000000000000000000000000000000000000000000000008152600401610ede906139a3565b60405180910390fd5b600260c9819055505f61012d5f8381526020019081526020015f209050806004015f9054906101000a900460ff16158015610f3157508060040160019054906101000a900460ff16155b610f70576040517f08c379a0000000000000000000000000000000000000000000000000000000008152600401610f6790613ffe565b60405180910390fd5b805f015f9054906101000a900473ffffffffffffffffffffffffffffffffffffffff1673ffffffffffffffffffffffffffffffffffffffff163373ffffffffffffffffffffffffffffffffffffffff161480610ffe5750610fcf6114f8565b73ffffffffffffffffffffffffffffffffffffffff163373ffffffffffffffffffffffffffffffffffffffff16145b61103d576040517f08c379a000000000000000000000000000000000000000000000000000000000815260040161103490614066565b60405180910390fd5b60018160040160016101000a81548160ff0219169083151502179055505f815f015f9054906101000a900473ffffffffffffffffffffffffffffffffffffffff1673ffffffffffffffffffffffffffffffffffffffff1682600201546040516110a590613e75565b5f6040518083038185875af1925050503d805f81146110df576040519150601f19603f3d011682016040523d82523d5f602084013e6110e4565b606091505b5050905080611128576040517f08c379a000000000000000000000000000000000000000000000000000000000815260040161111f906140ce565b60405180910390fd5b827f956fb32199d8b882b2039a14e1be35ab14f7a80b9089fc223f14b43937173e6060405160405180910390a25050600160c98190555050565b61116b816120ec565b6111848160405180602001604052805f8152505f61216b565b50565b61118f6120e5565b73ffffffffffffffffffffffffffffffffffffffff166111ad6114f8565b73ffffffffffffffffffffffffffffffffffffffff1614611203576040517f08c379a00000000000000000000000000000000000000000000000000000000081526004016111fa90613f70565b60405180910390fd5b61120b612374565b565b6112156120e5565b73ffffffffffffffffffffffffffffffffffffffff166112336114f8565b73ffffffffffffffffffffffffffffffffffffffff1614611289576040517f08c379a000000000000000000000000000000000000000000000000000000000815260040161128090613f70565b60405180910390fd5b8061012f819055507f8c4d35e54a3f2ef1134138fd8ea3daee6a3c89e10d2665996babdf70261e2c76816040516112c09190613325565b60405180910390a150565b6112d4826120ec565b6112e08282600161216b565b5050565b5f60fb5f9054906101000a900460ff16905090565b6101305f9054906101000a900473ffffffffffffffffffffffffffffffffffffffff1681565b6101325f9054906101000a900460ff1681565b61012f5481565b6113416120e5565b73ffffffffffffffffffffffffffffffffffffffff1661135f6114f8565b73ffffffffffffffffffffffffffffffffffffffff16146113b5576040517f08c379a00000000000000000000000000000000000000000000000000000000081526004016113ac90613f70565b60405180910390fd5b5f73ffffffffffffffffffffffffffffffffffffffff1660975f9054906101000a900473ffffffffffffffffffffffffffffffffffffffff1673ffffffffffffffffffffffffffffffffffffffff167f8be0079c531659141344cd1fd0a4f28419497f9722a3daafe3b4186f6b6457e060405160405180910390a35f60975f6101000a81548173ffffffffffffffffffffffffffffffffffffffff021916908373ffffffffffffffffffffffffffffffffffffffff160217905550565b61147a6120e5565b73ffffffffffffffffffffffffffffffffffffffff166114986114f8565b73ffffffffffffffffffffffffffffffffffffffff16146114ee576040517f08c379a00000000000000000000000000000000000000000000000000000000081526004016114e590613f70565b60405180910390fd5b6114f6612414565b565b5f60975f9054906101000a900473ffffffffffffffffffffffffffffffffffffffff16905090565b6115286120e5565b73ffffffffffffffffffffffffffffffffffffffff166115466114f8565b73ffffffffffffffffffffffffffffffffffffffff161461159c576040517f08c379a000000000000000000000000000000000000000000000000000000000815260040161159390613f70565b60405180910390fd5b806101315f8473ffffffffffffffffffffffffffffffffffffffff1673ffffffffffffffffffffffffffffffffffffffff1681526020019081526020015f205f6101000a81548160ff0219169083151502179055507f6a12b3df6cba4203bd7fd06b816789f87de8c594299aed5717ae070fac781bac82826040516116229291906140ec565b60405180910390a15050565b61012d602052805f5260405f205f91509050805f015f9054906101000a900473ffffffffffffffffffffffffffffffffffffffff1690806001015f9054906101000a900473ffffffffffffffffffffffffffffffffffffffff1690806002015490806003015490806004015f9054906101000a900460ff16908060040160019054906101000a900460ff16905086565b5f6101325f9054906101000a900460ff16905090565b60606116de6120e5565b73ffffffffffffffffffffffffffffffffffffffff166116fc6114f8565b73ffffffffffffffffffffffffffffffffffffffff1614611752576040517f08c379a000000000000000000000000000000000000000000000000000000000815260040161174990613f70565b60405180910390fd5b5f61012e5467ffffffffffffffff8111156117705761176f613485565b5b6040519080825280602002602001820160405280156117a957816020015b6117966131c8565b81526020019060019003908161178e5790505b5090505f5f90505b61012e548110156118f65761012d5f8281526020019081526020015f206040518060c00160405290815f82015f9054906101000a900473ffffffffffffffffffffffffffffffffffffffff1673ffffffffffffffffffffffffffffffffffffffff1673ffffffffffffffffffffffffffffffffffffffff168152602001600182015f9054906101000a900473ffffffffffffffffffffffffffffffffffffffff1673ffffffffffffffffffffffffffffffffffffffff1673ffffffffffffffffffffffffffffffffffffffff1681526020016002820154815260200160038201548152602001600482015f9054906101000a900460ff161515151581526020016004820160019054906101000a900460ff1615151515815250508282815181106118de576118dd614113565b5b602002602001018190525080806001019150506117b1565b508091505090565b61012e5481565b5f5f61190f6124b6565b905061271081846119209190614140565b61192a91906141ae565b61012f546119389190613c75565b915050919050565b6119486112e4565b15611988576040517f08c379a000000000000000000000000000000000000000000000000000000000815260040161197f9061393b565b60405180910390fd5b600260c954036119cd576040517f08c379a00000000000000000000000000000000000000000000000000000000081526004016119c4906139a3565b60405180910390fd5b600260c98190555061012e548110611a1a576040517f08c379a0000000000000000000000000000000000000000000000000000000008152600401611a1190614228565b60405180910390fd5b5f61012d5f8381526020019081526020015f209050806004015f9054906101000a900460ff16158015611a5c57508060040160019054906101000a900460ff16155b611a9b576040517f08c379a0000000000000000000000000000000000000000000000000000000008152600401611a9290613ffe565b60405180910390fd5b8060030154421015611ae2576040517f08c379a0000000000000000000000000000000000000000000000000000000008152600401611ad990614290565b60405180910390fd5b5f61012d5f8481526020019081526020015f206002015411611b39576040517f08c379a0000000000000000000000000000000000000000000000000000000008152600401611b30906142f8565b60405180910390fd5b6001816004015f6101000a81548160ff0219169083151502179055505f816001015f9054906101000a900473ffffffffffffffffffffffffffffffffffffffff1673ffffffffffffffffffffffffffffffffffffffff168260020154604051611ba190613e75565b5f6040518083038185875af1925050503d805f8114611bdb576040519150601f19603f3d011682016040523d82523d5f602084013e611be0565b606091505b5050905080611c24576040517f08c379a0000000000000000000000000000000000000000000000000000000008152600401611c1b90613ed3565b60405180910390fd5b827f36dc6b28af1028509a71e5c4781cbffb8dfd765a490d86d461c87271c652915d835f015f9054906101000a900473ffffffffffffffffffffffffffffffffffffffff16846001015f9054906101000a900473ffffffffffffffffffffffffffffffffffffffff168560020154604051611ca193929190614316565b60405180910390a2827f125c303d2745ba43e60c57de35d34b738ad1b154806471677b642b884705a9de835f015f9054906101000a900473ffffffffffffffffffffffffffffffffffffffff16846001015f9054906101000a900473ffffffffffffffffffffffffffffffffffffffff16856002015442604051611d28949392919061434b565b60405180910390a25050600160c98190555050565b611d456120e5565b73ffffffffffffffffffffffffffffffffffffffff16611d636114f8565b73ffffffffffffffffffffffffffffffffffffffff1614611db9576040517f08c379a0000000000000000000000000000000000000000000000000000000008152600401611db090613f70565b60405180910390fd5b5f73ffffffffffffffffffffffffffffffffffffffff168173ffffffffffffffffffffffffffffffffffffffff1603611e27576040517f08c379a0000000000000000000000000000000000000000000000000000000008152600401611e1e906143fe565b60405180910390fd5b8073ffffffffffffffffffffffffffffffffffffffff1660975f9054906101000a900473ffffffffffffffffffffffffffffffffffffffff1673ffffffffffffffffffffffffffffffffffffffff167f8be0079c531659141344cd1fd0a4f28419497f9722a3daafe3b4186f6b6457e060405160405180910390a38060975f6101000a81548173ffffffffffffffffffffffffffffffffffffffff021916908373ffffffffffffffffffffffffffffffffffffffff16021790555050565b610131602052805f5260405f205f915054906101000a900460ff1681565b5f60019054906101000a900460ff1680611f2857505f5f9054906101000a900460ff16155b611f67576040517f08c379a0000000000000000000000000000000000000000000000000000000008152600401611f5e9061448c565b60405180910390fd5b5f5f60019054906101000a900460ff161590508015611fb45760015f60016101000a81548160ff02191690831515021790555060015f5f6101000a81548160ff0219169083151502179055505b611fbc6124be565b611fc46125a2565b611fcc61267e565b611fd4612762565b8161012f8190555060016101325f6101000a81548160ff0219169083151502179055508015612017575f5f60016101000a81548160ff0219169083151502179055505b5050565b60605f600161202984612846565b0190505f8167ffffffffffffffff81111561204757612046613485565b5b6040519080825280601f01601f1916602001820160405280156120795781602001600182028036833780820191505090505b5090505f82602001820190505b6001156120da578080600190039150507f3031323334353637383961626364656600000000000000000000000000000000600a86061a8153600a85816120cf576120ce614181565b5b0494505f8503612086575b819350505050919050565b5f33905090565b6120f46120e5565b73ffffffffffffffffffffffffffffffffffffffff166121126114f8565b73ffffffffffffffffffffffffffffffffffffffff1614612168576040517f08c379a000000000000000000000000000000000000000000000000000000000815260040161215f90613f70565b60405180910390fd5b50565b5f612174612997565b905061217f846129ea565b5f8351118061218b5750815b1561219c5761219a8484612aa0565b505b5f6121c87f4910fdfa16fed3260ed0e7147f7cc6da11a60208b5b9406d12a635614ffd91435f1b612b80565b9050805f015f9054906101000a900460ff1661236d576001815f015f6101000a81548160ff021916908315150217905550612290858360405160240161220e91906136ae565b6040516020818303038152906040527f3659cfe6000000000000000000000000000000000000000000000000000000007bffffffffffffffffffffffffffffffffffffffffffffffffffffffff19166020820180517bffffffffffffffffffffffffffffffffffffffffffffffffffffffff8381831617835250505050612aa0565b505f815f015f6101000a81548160ff0219169083151502179055506122b3612997565b73ffffffffffffffffffffffffffffffffffffffff168273ffffffffffffffffffffffffffffffffffffffff1614612320576040517f08c379a00000000000000000000000000000000000000000000000000000000081526004016123179061451a565b60405180910390fd5b612329856129ea565b8473ffffffffffffffffffffffffffffffffffffffff167fbc7cd75a20ee27fd9adebab32041f755214dbc6bffa90cc0225b39da2e5c2d3b60405160405180910390a25b5050505050565b61237c6112e4565b6123bb576040517f08c379a00000000000000000000000000000000000000000000000000000000081526004016123b290614582565b60405180910390fd5b5f60fb5f6101000a81548160ff0219169083151502179055507f5db9ee0a495bf2e6ff9c91a7834c1ba4fdd244a5e8aa4e537bd38aeae4b073aa6123fd6120e5565b60405161240a91906136ae565b60405180910390a1565b61241c6112e4565b1561245c576040517f08c379a00000000000000000000000000000000000000000000000000000000081526004016124539061393b565b60405180910390fd5b600160fb5f6101000a81548160ff0219169083151502179055507f62e78cea01bee320cd4e420270b5ea74000d11b0c9f74754ebdbfc544b05a25861249f6120e5565b6040516124ac91906136ae565b60405180910390a1565b5f6064905090565b5f60019054906101000a900460ff16806124e357505f5f9054906101000a900460ff16155b612522576040517f08c379a00000000000000000000000000000000000000000000000000000000081526004016125199061448c565b60405180910390fd5b5f5f60019054906101000a900460ff16159050801561256f5760015f60016101000a81548160ff02191690831515021790555060015f5f6101000a81548160ff0219169083151502179055505b612577612b89565b61257f612c5d565b801561259f575f5f60016101000a81548160ff0219169083151502179055505b50565b5f60019054906101000a900460ff16806125c757505f5f9054906101000a900460ff16155b612606576040517f08c379a00000000000000000000000000000000000000000000000000000000081526004016125fd9061448c565b60405180910390fd5b5f5f60019054906101000a900460ff1615905080156126535760015f60016101000a81548160ff02191690831515021790555060015f5f6101000a81548160ff0219169083151502179055505b61265b612dd7565b801561267b575f5f60016101000a81548160ff0219169083151502179055505b50565b5f60019054906101000a900460ff16806126a357505f5f9054906101000a900460ff16155b6126e2576040517f08c379a00000000000000000000000000000000000000000000000000000000081526004016126d99061448c565b60405180910390fd5b5f5f60019054906101000a900460ff16159050801561272f5760015f60016101000a81548160ff02191690831515021790555060015f5f6101000a81548160ff0219169083151502179055505b612737612b89565b61273f612eb3565b801561275f575f5f60016101000a81548160ff0219169083151502179055505b50565b5f60019054906101000a900460ff168061278757505f5f9054906101000a900460ff16155b6127c6576040517f08c379a00000000000000000000000000000000000000000000000000000000081526004016127bd9061448c565b60405180910390fd5b5f5f60019054906101000a900460ff1615905080156128135760015f60016101000a81548160ff02191690831515021790555060015f5f6101000a81548160ff0219169083151502179055505b61281b612fa0565b612823613074565b8015612843575f5f60016101000a81548160ff0219169083151502179055505b50565b5f5f5f90507a184f03e93ff9f4daa797ed6e38ed64bf6a1f01000000000000000083106128a2577a184f03e93ff9f4daa797ed6e38ed64bf6a1f010000000000000000838161289857612897614181565b5b0492506040810190505b6d04ee2d6d415b85acef810000000083106128df576d04ee2d6d415b85acef810000000083816128d5576128d4614181565b5b0492506020810190505b662386f26fc10000831061290e57662386f26fc10000838161290457612903614181565b5b0492506010810190505b6305f5e1008310612937576305f5e100838161292d5761292c614181565b5b0492506008810190505b612710831061295c57612710838161295257612951614181565b5b0492506004810190505b6064831061297f576064838161297557612974614181565b5b0492506002810190505b600a831061298e576001810190505b80915050919050565b5f6129c37f360894a13ba1a3210667c828492db98dca3e2076cc3735a920a3ca505d382bbc5f1b613148565b5f015f9054906101000a900473ffffffffffffffffffffffffffffffffffffffff16905090565b6129f381613151565b612a32576040517f08c379a0000000000000000000000000000000000000000000000000000000008152600401612a2990614610565b60405180910390fd5b80612a5e7f360894a13ba1a3210667c828492db98dca3e2076cc3735a920a3ca505d382bbc5f1b613148565b5f015f6101000a81548173ffffffffffffffffffffffffffffffffffffffff021916908373ffffffffffffffffffffffffffffffffffffffff16021790555050565b6060612aab83613151565b612aea576040517f08c379a0000000000000000000000000000000000000000000000000000000008152600401612ae19061469e565b60405180910390fd5b5f5f8473ffffffffffffffffffffffffffffffffffffffff1684604051612b1191906146f6565b5f60405180830381855af49150503d805f8114612b49576040519150601f19603f3d011682016040523d82523d5f602084013e612b4e565b606091505b5091509150612b76828260405180606001604052806027815260200161470d60279139613162565b9250505092915050565b5f819050919050565b5f60019054906101000a900460ff1680612bae57505f5f9054906101000a900460ff16155b612bed576040517f08c379a0000000000000000000000000000000000000000000000000000000008152600401612be49061448c565b60405180910390fd5b5f5f60019054906101000a900460ff161590508015612c3a5760015f60016101000a81548160ff02191690831515021790555060015f5f6101000a81548160ff0219169083151502179055505b8015612c5a575f5f60016101000a81548160ff0219169083151502179055505b50565b5f60019054906101000a900460ff1680612c8257505f5f9054906101000a900460ff16155b612cc1576040517f08c379a0000000000000000000000000000000000000000000000000000000008152600401612cb89061448c565b60405180910390fd5b5f5f60019054906101000a900460ff161590508015612d0e5760015f60016101000a81548160ff02191690831515021790555060015f5f6101000a81548160ff0219169083151502179055505b5f612d176120e5565b90508060975f6101000a81548173ffffffffffffffffffffffffffffffffffffffff021916908373ffffffffffffffffffffffffffffffffffffffff1602179055508073ffffffffffffffffffffffffffffffffffffffff165f73ffffffffffffffffffffffffffffffffffffffff167f8be0079c531659141344cd1fd0a4f28419497f9722a3daafe3b4186f6b6457e060405160405180910390a3508015612dd4575f5f60016101000a81548160ff0219169083151502179055505b50565b5f60019054906101000a900460ff1680612dfc57505f5f9054906101000a900460ff16155b612e3b576040517f08c379a0000000000000000000000000000000000000000000000000000000008152600401612e329061448c565b60405180910390fd5b5f5f60019054906101000a900460ff161590508015612e885760015f60016101000a81548160ff02191690831515021790555060015f5f6101000a81548160ff0219169083151502179055505b600160c9819055508015612eb0575f5f60016101000a81548160ff0219169083151502179055505b50565b5f60019054906101000a900460ff1680612ed857505f5f9054906101000a900460ff16155b612f17576040517f08c379a0000000000000000000000000000000000000000000000000000000008152600401612f0e9061448c565b60405180910390fd5b5f5f60019054906101000a900460ff161590508015612f645760015f60016101000a81548160ff02191690831515021790555060015f5f6101000a81548160ff0219169083151502179055505b5f60fb5f6101000a81548160ff0219169083151502179055508015612f9d575f5f60016101000a81548160ff0219169083151502179055505b50565b5f60019054906101000a900460ff1680612fc557505f5f9054906101000a900460ff16155b613004576040517f08c379a0000000000000000000000000000000000000000000000000000000008152600401612ffb9061448c565b60405180910390fd5b5f5f60019054906101000a900460ff1615905080156130515760015f60016101000a81548160ff02191690831515021790555060015f5f6101000a81548160ff0219169083151502179055505b8015613071575f5f60016101000a81548160ff0219169083151502179055505b50565b5f60019054906101000a900460ff168061309957505f5f9054906101000a900460ff16155b6130d8576040517f08c379a00000000000000000000000000000000000000000000000000000000081526004016130cf9061448c565b60405180910390fd5b5f5f60019054906101000a900460ff1615905080156131255760015f60016101000a81548160ff02191690831515021790555060015f5f6101000a81548160ff0219169083151502179055505b8015613145575f5f60016101000a81548160ff0219169083151502179055505b50565b5f819050919050565b5f5f823b90505f8111915050919050565b60608315613172578290506131c1565b5f835111156131845782518084602001fd5b816040517f08c379a00000000000000000000000000000000000000000000000000000000081526004016131b89190613c28565b60405180910390fd5b9392505050565b6040518060c001604052805f73ffffffffffffffffffffffffffffffffffffffff1681526020015f73ffffffffffffffffffffffffffffffffffffffff1681526020015f81526020015f81526020015f151581526020015f151581525090565b5f604051905090565b5f5ffd5b5f5ffd5b5f73ffffffffffffffffffffffffffffffffffffffff82169050919050565b5f61326282613239565b9050919050565b61327281613258565b811461327c575f5ffd5b50565b5f8135905061328d81613269565b92915050565b5f819050919050565b6132a581613293565b81146132af575f5ffd5b50565b5f813590506132c08161329c565b92915050565b5f5f5f606084860312156132dd576132dc613231565b5b5f6132ea8682870161327f565b93505060206132fb868287016132b2565b925050604061330c868287016132b2565b9150509250925092565b61331f81613293565b82525050565b5f6020820190506133385f830184613316565b92915050565b5f5f6040838503121561335457613353613231565b5b5f6133618582860161327f565b9250506020613372858286016132b2565b9150509250929050565b5f61338682613239565b9050919050565b6133968161337c565b81146133a0575f5ffd5b50565b5f813590506133b18161338d565b92915050565b5f602082840312156133cc576133cb613231565b5b5f6133d9848285016133a3565b91505092915050565b5f8115159050919050565b6133f6816133e2565b8114613400575f5ffd5b50565b5f81359050613411816133ed565b92915050565b5f6020828403121561342c5761342b613231565b5b5f61343984828501613403565b91505092915050565b5f6020828403121561345757613456613231565b5b5f613464848285016132b2565b91505092915050565b5f5ffd5b5f5ffd5b5f601f19601f8301169050919050565b7f4e487b71000000000000000000000000000000000000000000000000000000005f52604160045260245ffd5b6134bb82613475565b810181811067ffffffffffffffff821117156134da576134d9613485565b5b80604052505050565b5f6134ec613228565b90506134f882826134b2565b919050565b5f67ffffffffffffffff82111561351757613516613485565b5b61352082613475565b9050602081019050919050565b828183375f83830152505050565b5f61354d613548846134fd565b6134e3565b90508281526020810184848401111561356957613568613471565b5b61357484828561352d565b509392505050565b5f82601f8301126135905761358f61346d565b5b81356135a084826020860161353b565b91505092915050565b5f5f604083850312156135bf576135be613231565b5b5f6135cc858286016133a3565b925050602083013567ffffffffffffffff8111156135ed576135ec613235565b5b6135f98582860161357c565b9150509250929050565b61360c816133e2565b82525050565b5f6020820190506136255f830184613603565b92915050565b5f819050919050565b5f61364e61364961364484613239565b61362b565b613239565b9050919050565b5f61365f82613634565b9050919050565b5f61367082613655565b9050919050565b61368081613666565b82525050565b5f6020820190506136995f830184613677565b92915050565b6136a88161337c565b82525050565b5f6020820190506136c15f83018461369f565b92915050565b5f5f604083850312156136dd576136dc613231565b5b5f6136ea858286016133a3565b92505060206136fb85828601613403565b9150509250929050565b61370e81613258565b82525050565b5f60c0820190506137275f830189613705565b6137346020830188613705565b6137416040830187613316565b61374e6060830186613316565b61375b6080830185613603565b61376860a0830184613603565b979650505050505050565b5f81519050919050565b5f82825260208201905092915050565b5f819050602082019050919050565b6137a581613258565b82525050565b6137b481613293565b82525050565b6137c3816133e2565b82525050565b60c082015f8201516137dd5f85018261379c565b5060208201516137f0602085018261379c565b50604082015161380360408501826137ab565b50606082015161381660608501826137ab565b50608082015161382960808501826137ba565b5060a082015161383c60a08501826137ba565b50505050565b5f61384d83836137c9565b60c08301905092915050565b5f602082019050919050565b5f61386f82613773565b613879818561377d565b93506138848361378d565b805f5b838110156138b457815161389b8882613842565b97506138a683613859565b925050600181019050613887565b5085935050505092915050565b5f6020820190508181035f8301526138d98184613865565b905092915050565b5f82825260208201905092915050565b7f5061757361626c653a20706175736564000000000000000000000000000000005f82015250565b5f6139256010836138e1565b9150613930826138f1565b602082019050919050565b5f6020820190508181035f83015261395281613919565b9050919050565b7f5265656e7472616e637947756172643a207265656e7472616e742063616c6c005f82015250565b5f61398d601f836138e1565b915061399882613959565b602082019050919050565b5f6020820190508181035f8301526139ba81613981565b9050919050565b7f53656e64657220697320626c61636b6c697374656400000000000000000000005f82015250565b5f6139f56015836138e1565b9150613a00826139c1565b602082019050919050565b5f6020820190508181035f830152613a22816139e9565b9050919050565b7f416d6f756e74206d7573742062652067726561746572207468616e20300000005f82015250565b5f613a5d601d836138e1565b9150613a6882613a29565b602082019050919050565b5f6020820190508181035f830152613a8a81613a51565b9050919050565b5f81905092915050565b7f5363686564756c65642074696d65206d75737420626520696e207468652066755f8201527f747572652e2043757272656e742074696d653a20000000000000000000000000602082015250565b5f613af5603483613a91565b9150613b0082613a9b565b603482019050919050565b5f81519050919050565b5f5b83811015613b32578082015181840152602081019050613b17565b5f8484015250505050565b5f613b4782613b0b565b613b518185613a91565b9350613b61818560208601613b15565b80840191505092915050565b7f2c205363686564756c65642074696d653a2000000000000000000000000000005f82015250565b5f613ba1601283613a91565b9150613bac82613b6d565b601282019050919050565b5f613bc182613ae9565b9150613bcd8285613b3d565b9150613bd882613b95565b9150613be48284613b3d565b91508190509392505050565b5f613bfa82613b0b565b613c0481856138e1565b9350613c14818560208601613b15565b613c1d81613475565b840191505092915050565b5f6020820190508181035f830152613c408184613bf0565b905092915050565b7f4e487b71000000000000000000000000000000000000000000000000000000005f52601160045260245ffd5b5f613c7f82613293565b9150613c8a83613293565b9250828201905080821115613ca257613ca1613c48565b5b92915050565b7f53656e742076616c7565206d757374206d6174636820746865207472616e73615f8201527f6374696f6e20616d6f756e7420706c7573206665650000000000000000000000602082015250565b5f613d026035836138e1565b9150613d0d82613ca8565b604082019050919050565b5f6020820190508181035f830152613d2f81613cf6565b9050919050565b5f613d4082613293565b91507fffffffffffffffffffffffffffffffffffffffffffffffffffffffffffffffff8203613d7257613d71613c48565b5b600182019050919050565b5f613d8782613655565b9050919050565b613d9781613d7d565b82525050565b5f608082019050613db05f83018761369f565b613dbd6020830186613d8e565b613dca6040830185613316565b613dd76060830184613316565b95945050505050565b7f436f6e74726163742069732064697361626c65640000000000000000000000005f82015250565b5f613e146014836138e1565b9150613e1f82613de0565b602082019050919050565b5f6020820190508181035f830152613e4181613e08565b9050919050565b5f81905092915050565b50565b5f613e605f83613e48565b9150613e6b82613e52565b5f82019050919050565b5f613e7f82613e55565b9150819050919050565b7f5472616e73666572206661696c656400000000000000000000000000000000005f82015250565b5f613ebd600f836138e1565b9150613ec882613e89565b602082019050919050565b5f6020820190508181035f830152613eea81613eb1565b9050919050565b5f606082019050613f045f83018661369f565b613f116020830185613d8e565b613f1e6040830184613316565b949350505050565b7f4f776e61626c653a2063616c6c6572206973206e6f7420746865206f776e65725f82015250565b5f613f5a6020836138e1565b9150613f6582613f26565b602082019050919050565b5f6020820190508181035f830152613f8781613f4e565b9050919050565b7f5472616e73616374696f6e20616c7265616479206578656375746564206f72205f8201527f63616e63656c6c65640000000000000000000000000000000000000000000000602082015250565b5f613fe86029836138e1565b9150613ff382613f8e565b604082019050919050565b5f6020820190508181035f83015261401581613fdc565b9050919050565b7f4e6f7420617574686f72697a656420746f2063616e63656c00000000000000005f82015250565b5f6140506018836138e1565b915061405b8261401c565b602082019050919050565b5f6020820190508181035f83015261407d81614044565b9050919050565b7f526566756e64206661696c6564000000000000000000000000000000000000005f82015250565b5f6140b8600d836138e1565b91506140c382614084565b602082019050919050565b5f6020820190508181035f8301526140e5816140ac565b9050919050565b5f6040820190506140ff5f83018561369f565b61410c6020830184613603565b9392505050565b7f4e487b71000000000000000000000000000000000000000000000000000000005f52603260045260245ffd5b5f61414a82613293565b915061415583613293565b925082820261416381613293565b9150828204841483151761417a57614179613c48565b5b5092915050565b7f4e487b71000000000000000000000000000000000000000000000000000000005f52601260045260245ffd5b5f6141b882613293565b91506141c383613293565b9250826141d3576141d2614181565b5b828204905092915050565b7f496e76616c6964207472616e73616374696f6e204944000000000000000000005f82015250565b5f6142126016836138e1565b915061421d826141de565b602082019050919050565b5f6020820190508181035f83015261423f81614206565b9050919050565b7f5472616e73616374696f6e206e6f7420796574206475650000000000000000005f82015250565b5f61427a6017836138e1565b915061428582614246565b602082019050919050565b5f6020820190508181035f8301526142a78161426e565b9050919050565b7f496e76616c6964207472616e73616374696f6e20616d6f756e740000000000005f82015250565b5f6142e2601a836138e1565b91506142ed826142ae565b602082019050919050565b5f6020820190508181035f83015261430f816142d6565b9050919050565b5f6060820190506143295f830186613d8e565b6143366020830185613d8e565b6143436040830184613316565b949350505050565b5f60808201905061435e5f830187613d8e565b61436b6020830186613d8e565b6143786040830185613316565b6143856060830184613316565b95945050505050565b7f4f776e61626c653a206e6577206f776e657220697320746865207a65726f20615f8201527f6464726573730000000000000000000000000000000000000000000000000000602082015250565b5f6143e86026836138e1565b91506143f38261438e565b604082019050919050565b5f6020820190508181035f830152614415816143dc565b9050919050565b7f496e697469616c697a61626c653a20636f6e747261637420697320616c7265615f8201527f647920696e697469616c697a6564000000000000000000000000000000000000602082015250565b5f614476602e836138e1565b91506144818261441c565b604082019050919050565b5f6020820190508181035f8301526144a38161446a565b9050919050565b7f45524331393637557067726164653a207570677261646520627265616b7320665f8201527f7572746865722075706772616465730000000000000000000000000000000000602082015250565b5f614504602f836138e1565b915061450f826144aa565b604082019050919050565b5f6020820190508181035f830152614531816144f8565b9050919050565b7f5061757361626c653a206e6f74207061757365640000000000000000000000005f82015250565b5f61456c6014836138e1565b915061457782614538565b602082019050919050565b5f6020820190508181035f83015261459981614560565b9050919050565b7f455243313936373a206e657720696d706c656d656e746174696f6e206973206e5f8201527f6f74206120636f6e747261637400000000000000000000000000000000000000602082015250565b5f6145fa602d836138e1565b9150614605826145a0565b604082019050919050565b5f6020820190508181035f830152614627816145ee565b9050919050565b7f416464726573733a2064656c65676174652063616c6c20746f206e6f6e2d636f5f8201527f6e74726163740000000000000000000000000000000000000000000000000000602082015250565b5f6146886026836138e1565b91506146938261462e565b604082019050919050565b5f6020820190508181035f8301526146b58161467c565b9050919050565b5f81519050919050565b5f6146d0826146bc565b6146da8185613e48565b93506146ea818560208601613b15565b80840191505092915050565b5f61470182846146c6565b91508190509291505056fe416464726573733a206c6f772d6c6576656c2064656c65676174652063616c6c206661696c6564a2646970667358221220d269dfbfb9e9939c19171fe31b169f75a41f52052a659248eb8993bc03e343bb64736f6c634300081c0033",
  "linkReferences": {},
  "deployedLinkReferences": {}
}